:020000040800F2
:1000000068060020290200088F0E0008710E000803
:100010008B0E00082B0300089D1000080000000054
:100020000000000000000000000000004110000877
:100030002F030008000000009F0F00084310000875
:10004000430200084302000843020008430200087C
:10005000430200084302000843020008430200086C
:10006000430200084302000843020008430200085C
:10007000430200084302000843020008430200084C
:10008000430200084302000843020008430200083C
:10009000430200084302000843020008430200082C
:1000A000430200084302000843020008430200081C
:1000B000430200084302000843020008430200080C
:1000C00043020008430200084302000843020008FC
:1000D00043020008430200084302000843020008EC
:1000E0003D030008430200084302000843020008E1
:1000F00043020008430200084302000843020008CC
:1001000043020008430200084302000843020008BB
:1001100043020008430200084302000843020008AB
:10012000430200084302000843020008430200089B
:10013000430200084302000843020008430200088B
:10014000430200084302000843020008430200087B
:10015000430200084302000843020008430200086B
:10016000430200084302000843020008430200085B
:100170004302000843020008430200080000000098
:10018000430200084302000800F002F800F03CF8C7
:100190000AA090E8000C82448344AAF10107DA45E2
:1001A00001D100F031F8AFF2090EBAE80F0013F0F8
:1001B000010F18BFFB1A43F001031847880F000016
:1001C000A80F0000103A24BF78C878C1FAD85207A7
:1001D00024BF30C830C144BF04680C6070470000C1
:1001E0000023002400250026103A28BF78C1FBD840
:1001F000520728BF30C148BF0B6070471FB500F0E1
:1002000078FF1FBD10B510BD00F058F81146FFF77C
:10021000F5FF00F045FF00F076F803B4FFF7F2FFBA
:1002200003BC00F07BF800000948804709480047FC
:10023000FEE7FEE7FEE7FEE7FEE7FEE7FEE7FEE796
:10024000FEE7FEE704480549054A064B70470000F3
:100250004D10000889010008680000206806002091
:1002600068020020680200204FF0000200B513462B
:1002700094469646203922BFA0E80C50A0E80C50C6
:10028000B1F12001BFF4F7AF090728BFA0E80C5077
:1002900048BF0CC05DF804EB890028BF40F8042B70
:1002A00008BF704748BF20F8022B11F0804F18BFDD
:1002B00000F8012B7047704770477047754600F093
:1002C00029F8AE4605006946534620F007008546EA
:1002D00018B020B5FFF7B6FFBDE820404FF000068C
:1002E0004FF000074FF000084FF0000B21F007011E
:1002F000AC46ACE8C009ACE8C009ACE8C009ACE861
:10030000C0098D4670470446AFF300802046FFF7D2
:1003100084FF0000004870470800002001491820B1
:10032000ABBEFEE726000200704700BFFEE7704745
:1003300010B50446204600F007F810BD10B54FF484
:10034000005000F00FF810BD70B50446002500F015
:1003500017F8054600BF00F013F8401BA042FAD37F
:1003600070BD704710B5044604480068204020B1B5
:10037000024804602046FFF7F4FF10BD140401405A
:100380000148006870470000000000200248006833
:10039000401C0149086070470000002010B5032090
:1003A00000F05CF80F2000F005F800F017F80020CE
:1003B00010BD000070B50446074800684FF47A711C
:1003C000B0FBF1F5284600F039FD00222146501E11
:1003D00000F005F8002070BD0400002070472DE9F2
:1003E000F05F80460D461646002700F051FD074697
:1003F00039462A46334601F00700C0F1070ABAF130
:10040000040F02D94FF0040A01E0C0F1070AD146F7
:1004100000F1040ABAF1070F02D24FF0000A01E01E
:10042000A0F1030AD4464FF0010A0AFA09FAAAF128
:10043000010A0AEA020A0AFA0CFA4FF0010B0BFA57
:100440000CFBABF1010B0BEA030B4AEA0B04214650
:10045000404600F025FDBDE8F09F000000BF00F021
:100460000702064B19684FF6FF031940044B0B4374
:1004700043EA0221014B196000BF70470CED00E018
:100480000000FA050248006800F4C06070470000F0
:100490000070004070B504460D46002673480068A1
:1004A00000F00700A8420ED27048006820F0070054
:1004B00028436E4908600846006800F00700A8421B
:1004C00001D0012070BD207800F00200022807D181
:1004D0006748806820F0F000A1680843644988609C
:1004E000207800F00100002879D06068022806D149
:1004F0005F48006800F40030D8B90120E2E7606886
:10050000032806D15A48006800F0007088B901201D
:10051000D8E7606830B95648006800F0020040B97A
:100520000120CFE75248006800F4806008B901203C
:10053000C8E74F48806820F00300616808434C49D1
:100540008860FFF71DFF06466068022810D108E0AA
:10055000FFF716FF801B41F28831884201D9032042
:10056000B0E74348806800F00C000828F0D136E07E
:100570006068032810D108E0FFF702FF801B41F2FA
:100580008831884201D903209CE73948806800F00F
:100590000C000C28F0D122E0606880B908E0FFF779
:1005A000EFFE801B41F28831884201D9032089E7A0
:1005B0002F48806800F00C000028F0D10FE008E020
:1005C000FFF7DEFE801B41F28831884201D903200B
:1005D00078E72748806800F00C000428F0D1234811
:1005E000006800F00700A8420ED92048006820F0FB
:1005F000070028431D4908600846006800F007000E
:10060000A84201D001205DE7207800F00400042812
:1006100007D11748806820F4E060E1680843144976
:100620008860207800F00800082808D11048806809
:1006300020F46050216940EAC1000D49886000F053
:100640001DF80B49896801F0F001F02292FAA2F23C
:10065000B2FA82F2D140074A515CC84006490860AC
:100660000F20FFF7A7FE00202CE70000002002402B
:1006700000100240FC10000804000020F0B500212A
:1006800000230024022502220020554EB66806F001
:100690000C065EB1524EB66806F00C060C2E2DD13B
:1006A0004F4EF66806F00306012E27D14C4E3668F1
:1006B00006F008066EB94A4E9436366806F470663F
:1006C0004FF4706797FAA7F7B7FA87F726FA07F19A
:1006D0000AE0434E366806F0F006F02797FAA7F7CF
:1006E000B7FA87F726FA07F13E4E56F821103C4E2E
:1006F000B66806F00C0686B908460EE0384EB668B5
:1007000006F00C06042E01D1374806E0344EB668D8
:1007100006F00C06082E00D13448314EB66806F0BB
:100720000C060C2E5BD12E4EF66806F003042C4E00
:10073000F66806F07006702797FAA7F7B7FA87F7FA
:10074000FE40721C012C29D0022C02D0032C24D193
:1007500011E0254EB6FBF2F6214FFF6807F4FE4785
:100760004FF4FE4C9CFAACFCBCFA8CFC27FA0CF75C
:1007700006FB07F323E01D4EB6FBF2F6184FFF68A9
:1007800007F4FE474FF4FE4C9CFAACFCBCFA8CFC20
:1007900027FA0CF706FB07F311E000BFB1FBF2F6F6
:1007A0000F4FFF6807F4FE474FF4FE4C9CFAACFC79
:1007B000BCFA8CFC27FA0CF706FB07F300BF00BF5E
:1007C000074EF66806F0C0664FF0C06797FAA7F7C5
:1007D000B7FA87F7FE40761C7500B3FBF5F0F0BD65
:1007E00000100240141100080024F40000127A00E6
:1007F000F8B504460025207800F01000102874D1C8
:10080000FE48806800F00C00002870D1FB480068AA
:1008100000F0020018B1A06908B90120F8BDF7483E
:10082000216A006800F0080020B1F448006800F078
:10083000F00005E0F1489430006800F470600009B1
:1008400081421FD9206A00F0ABFB08B10120E5E727
:1008500000BFEA48006840F00800E8490860084620
:10086000006820F0F000216A0843E449086000BFF6
:100870000846406820F47F40E16940EA0120DF49F2
:1008800048601EE000BFDD48006840F00800DB491A
:1008900008600846006820F0F000216A0843D74944
:1008A000086000BF0846406820F47F40E16940EAE4
:1008B0000120D2494860206A00F072FB08B1012093
:1008C000ACE7FFF7DBFECD49896801F0F001F022CB
:1008D00092FAA2F2B2FA82F2D140C94A515CC840FF
:1008E000C84908600F20FFF765FD4BE0FFE7A069EE
:1008F00080B3C248006840F00100C0490860FFF7BB
:100900003FFD054606E0FFF73BFD401B022801D9ED
:10091000032083E7B948006800F002000028F2D005
:1009200000BFB648006840F00800B44908600846B7
:10093000006820F0F000216A0843B049086000BF59
:100940000846406820F47F40E16940EA0120AB4955
:10095000486017E0FFE7A948006820F00100A749B8
:100960000860FFF70DFD054606E0FFF709FD401B97
:10097000022801D9032051E7A048006800F00200D6
:100980000028F2D1207800F00100002868D09B48B0
:10099000806800F00C0008280BD09848806800F0B0
:1009A0000C000C280ED19548C06800F00300032805
:1009B00008D19248006800F4003088B3606878BBC2
:1009C00001202BE700BF6068B0F5803F06D18B485F
:1009D000006840F48030894908601AE06068B0F52A
:1009E000A02F0BD18548006840F48020834908601F
:1009F0000846006840F4803008600AE07F480068DC
:100A000020F480307D4908600846006820F480208A
:100A1000086000BF606890B1FFF7B2FC054607E0D0
:100A20001EE0FFF7ADFC401B642801D90320F5E66A
:100A30007248006800F400300028F2D010E0FFF7A0
:100A40009FFC054606E0FFF79BFC401B642801D98C
:100A50000320E3E66948006800F400300028F2D182
:100A6000207800F0020002286AD16448806800F013
:100A70000C0004280BD06148806800F00C000C28A2
:100A80001ED15E48C06800F00300022818D15B4800
:100A9000006800F4806018B1E06808B90120BDE684
:100AA0005648406820F0F8504FF0F85292FAA2F2FF
:100AB000B2FA82F2216991400843504948603FE010
:100AC000E06830B34D48006840F480704B490860DE
:100AD000FFF756FC054606E0FFF752FC401B0228D4
:100AE00001D903209AE64548006800F48060002898
:100AF000F2D04248406820F0F8504FF0F85292FA95
:100B0000A2F2B2FA82F22169914008433B4948605F
:100B100016E03A48006820F4807038490860FFF712
:100B20002FFC054606E0FFF72BFC401B022801D9ED
:100B3000032073E63148006800F480600028F2D199
:100B4000207800F00800082836D16069D0B12B4821
:100B50009430006840F001002849C1F89400FFF784
:100B60000FFC054606E0FFF70BFC401B022801D9ED
:100B7000032053E621489430006800F0020000286A
:100B8000F1D019E01D489430006820F001001B49A5
:100B9000C1F89400FFF7F4FB054606E0FFF7F0FB11
:100BA000401B022801D9032038E61448943000681D
:100BB00000F002000028F1D1207800F004000428A1
:100BC0006FD100260D48806D00F0805070B900BFD5
:100BD0000A48806D40F08050084988650846806D5D
:100BE00000F08050009000BF00BF0126064800685A
:100BF00000F48070F8B90448006807E00010024073
:100C0000FC100008040000200070004040F48070D8
:100C100087490860FFF7B4FB054606E0FFF7B0FB25
:100C2000401B022801D90320F8E58148006800F440
:100C300080700028F2D000BFA068012808D17D484C
:100C4000006840F001007B499039C1F8900021E034
:100C5000A06805280FD17748006840F00400754966
:100C60009039C1F890000846D0F8900040F001009B
:100C7000C1F890000EE06F48006820F001006D4957
:100C80009039C1F890000846D0F8900020F0040098
:100C9000C1F8900000BFA068A0B1FFF771FB054646
:100CA00009E02DE0FFF76CFB401B41F288318842E0
:100CB00001D90320B2E55F48006800F00200002877
:100CC000F0D012E0FFF75CFB054608E0FFF758FBA9
:100CD000401B41F28831884201D903209EE55548E6
:100CE000006800F002000028F0D1012E07D1514821
:100CF0009038806D20F080504E499039886500BF53
:100D0000A06AE8B34B489038806800F00C000C28CB
:100D100079D0A06A022853D146489038006820F064
:100D20008070444990390860FFF72AFB054606E0C9
:100D3000FFF726FB401B022801D903206EE53D4842
:100D40009038006800F000700028F1D1206B401E40
:100D50000101606B41EA0021A06B000941EA4040BB
:100D6000E16A0843A18F0122C2EB510140EA4151DF
:100D70004020005DC2EB500041EA40602D4900E098
:100D800053E09039C8600846006840F08070086001
:100D90000846C06840F08070C860FFF7F1FA054669
:100DA00006E0FFF7EDFA401B022801D9032035E5E4
:100DB00020489038006800F000700028F1D034E03E
:100DC0001C489038006820F080701A4990390860FB
:100DD0000846006800F0006048B90846006800F066
:100DE000005020B90846C06820F00300C8601148D0
:100DF0009038C068104908400E499039C860FFF724
:100E0000BFFA054607E00EE0FFF7BAFA401B0228DA
:100E100001D9032002E507489038006800F000700F
:100E20000028F1D101E00120F8E40020F6E4000000
:100E30000070004090100240FFFFEEFE70B50446C7
:100E40002546681EB0F1807F01D301200FE0681EA7
:100E50004FF0E02148610F214FF0FF3000F020F803
:100E600000204FF0E021886107200861002070BD5C
:100E700000BFFEE700BF4FF09040806940F02000C7
:100E80004FF09041886100BF704700BFFEE7704798
:100E900002480068C0F30220704700000CED00E03B
:100EA00010B5002807DA0A07140E054A00F00F03F0
:100EB0001B1FD45403E00A07130E024A135410BD3B
:100EC00018ED00E000E400E008B500BF0648C06C83
:100ED00040F001000449C8640846C06C00F00100FD
:100EE000009000BF00BF08BD0010024002281FD1C3
:100EF00000214FF0904211601146096841F4806171
:100F000011601146496851601146896841F4806159
:100F100091601146C968D160114689699161114695
:100F2000096A11621146496A51621146C96AD16261
:100F3000704700B597B0142112A8FFF795F9442126
:100F400001A8FFF791F9102001900120079060207F
:100F500009900020089002200B9001210C910D9126
:100F600028210E910221119107210F910421109146
:100F700001A8FFF73DFC08B100BFFEE70F2012906B
:100F8000032013900020149015901690042112A8AD
:100F9000FFF780FA08B100BFFEE717B000BD704749
:100FA000F8B50446002600252348806D00F08050E7
:100FB00018B1FFF767FA064616E000BF1E48806DBD
:100FC00040F080501C4988650846806D00F08050D4
:100FD000009000BF00BFFFF755FA06461648806D27
:100FE00020F0805014498865B6F5007F07D1802C29
:100FF00010D9A02C01D902250CE001250AE0802C93
:1010000001D9032506E0802C01D1022502E0702CD5
:1010100000D101250948006820F00700284307494E
:1010200008600846006800F00700A84201D00120CF
:10103000F8BD0020FCE70000001002400020024044
:10104000704710B5FFF7A2F910BD00001048006806
:1010500040F470000E4908600E48006840F001003E
:101060000C49086000208860084600680A4908406A
:10107000084908608814C8600846006820F4802089
:10108000086000208861C803014980390860704702
:1010900088ED00E000100240FFFFF6EA00BFFEE727
:1010A000FFF77CF9FFF745FFFFF70EFF0220FFF780
:1010B0001DFFFFF7DFFE1BE000BF4FF0904080698F
:1010C00040F400104FF09041886100BF4FF47A70F7
:1010D000FFF72EF900BF4FF09040806940F02000EC
:1010E0004FF09041886100BF4FF47A70FFF720F90C
:1010F000E2E74FF04070E1EE100A70470000000098
:1011000000000000010203040607080900000000B7
:1011100001020304A0860100400D0300801A0600AE
:1011200000350C0040420F0080841E0000093D0085
:1011300000127A000024F40000366E010048E80135
:10114000006CDC02641100080000002008000000B0
:10115000C40100086C1100080800002060060000AF
:0C116000E00100080000000000093D0054
:040000050800018965
:00000001FF
